RX443436646 2425820180430AB0054AG                                                                                                                                                                                                                                                                                                                                                                                                                                                                                                                                                                                       
RD03999999999DOE                 JOHN           PAUL           JR. 19770526019658745241          000060000001000020160117PBTEST1                                 00000000000000CS  K SMITH                                           5092496000     KSMITH@DSHS.MA.GOV                                State Division of Child Support                   EState Support Registry                            PO Box 12868                                      Boston, MA 12345                                                                            Agency000000021                                                
RT443436646 24258000003                                                                                                                                                                                                                                                                                                                                                                                                                                                                                                                                                                                                 
