RH443436646 2425820180430AB0054AG                                                                                                                                                                                                                                                                                                                                                                                                                                                                                                                                                                                       
RD03999999999DOE                 JOHN           PAUL           JR. 19770526019658745241          000060000001000020160117PBTEST1                                 00000000000000CS  K SMITH                                           5092496000     KSMITH@DSHS.MA.GOV                                State Division of Child Support                   EState Support Registry                            PO Box 12868                                      Boston, MA 12345                                                                            Agency000000021                                                
RD03999999999PUBLIC              JANE                                      049688852242          000019247001000020160117PBTEST2                                 00000000010000CS  B JONES                                           25359737001111 BJONES@DSHS.MA.GOV                                State Division of Child Support                   EState Support Registry                            PO Box 12868                                      Boston, MA 12345                                                                            Agency000000022                                                
RH443436646 2425820180430AB0054AG                                                                                                                                                                                                                                                                                                                                                                                                                                                                                                                                                                                       
RD03999999999ROZIE               RAMESH                                    049688852243          000019247001000020160117PBTEST3                                 00000000010000CS  B JONES                                           25359737001111 BJONES@DSHS.MA.GOV                                State Division of Child Support                   EState Support Registry                            PO Box 12868                                      Boston, MA 12345                                                                            Agency000000023                                                
RT443436646 24258000003                                                                                                                                                                                                                                                                                                                                                                                                                                                                                                                                                                                                 
